{
  "_format": "hh-sol-artifact-1",
  "contractName": "Streamer",
  "sourceName": "contracts/Streamer.sol",
  "abi": [
    {
      "inputs": [
        {
          "internalType": "string",
          "name": "name",
          "type": "string"
        },
        {
          "internalType": "string",
          "name": "symbol",
          "type": "string"
        },
        {
          "internalType": "uint256",
          "name": "supply",
          "type": "uint256"
        },
        {
          "internalType": "address",
          "name": "_stf",
          "type": "address"
        },
        {
          "internalType": "address",
          "name": "host",
          "type": "address"
        },
        {
          "internalType": "address",
          "name": "cfa",
          "type": "address"
        }
      ],
      "stateMutability": "nonpayable",
      "type": "constructor"
    },
    {
      "anonymous": false,
      "inputs": [
        {
          "indexed": true,
          "internalType": "bytes32",
          "name": "role",
          "type": "bytes32"
        },
        {
          "indexed": true,
          "internalType": "bytes32",
          "name": "previousAdminRole",
          "type": "bytes32"
        },
        {
          "indexed": true,
          "internalType": "bytes32",
          "name": "newAdminRole",
          "type": "bytes32"
        }
      ],
      "name": "RoleAdminChanged",
      "type": "event"
    },
    {
      "anonymous": false,
      "inputs": [
        {
          "indexed": true,
          "internalType": "bytes32",
          "name": "role",
          "type": "bytes32"
        },
        {
          "indexed": true,
          "internalType": "address",
          "name": "account",
          "type": "address"
        },
        {
          "indexed": true,
          "internalType": "address",
          "name": "sender",
          "type": "address"
        }
      ],
      "name": "RoleGranted",
      "type": "event"
    },
    {
      "anonymous": false,
      "inputs": [
        {
          "indexed": true,
          "internalType": "bytes32",
          "name": "role",
          "type": "bytes32"
        },
        {
          "indexed": true,
          "internalType": "address",
          "name": "account",
          "type": "address"
        },
        {
          "indexed": true,
          "internalType": "address",
          "name": "sender",
          "type": "address"
        }
      ],
      "name": "RoleRevoked",
      "type": "event"
    },
    {
      "inputs": [],
      "name": "DEFAULT_ADMIN_ROLE",
      "outputs": [
        {
          "internalType": "bytes32",
          "name": "",
          "type": "bytes32"
        }
      ],
      "stateMutability": "view",
      "type": "function"
    },
    {
      "inputs": [],
      "name": "STREAM_MANAGER_ROLE",
      "outputs": [
        {
          "internalType": "bytes32",
          "name": "",
          "type": "bytes32"
        }
      ],
      "stateMutability": "view",
      "type": "function"
    },
    {
      "inputs": [],
      "name": "cfaV1",
      "outputs": [
        {
          "internalType": "contract ISuperfluid",
          "name": "host",
          "type": "address"
        },
        {
          "internalType": "contract IConstantFlowAgreementV1",
          "name": "cfa",
          "type": "address"
        }
      ],
      "stateMutability": "view",
      "type": "function"
    },
    {
      "inputs": [
        {
          "internalType": "address",
          "name": "to",
          "type": "address"
        },
        {
          "internalType": "uint256",
          "name": "amount",
          "type": "uint256"
        }
      ],
      "name": "drop",
      "outputs": [],
      "stateMutability": "nonpayable",
      "type": "function"
    },
    {
      "inputs": [
        {
          "internalType": "bytes32",
          "name": "role",
          "type": "bytes32"
        }
      ],
      "name": "getRoleAdmin",
      "outputs": [
        {
          "internalType": "bytes32",
          "name": "",
          "type": "bytes32"
        }
      ],
      "stateMutability": "view",
      "type": "function"
    },
    {
      "inputs": [
        {
          "internalType": "bytes32",
          "name": "role",
          "type": "bytes32"
        },
        {
          "internalType": "address",
          "name": "account",
          "type": "address"
        }
      ],
      "name": "grantRole",
      "outputs": [],
      "stateMutability": "nonpayable",
      "type": "function"
    },
    {
      "inputs": [
        {
          "internalType": "bytes32",
          "name": "role",
          "type": "bytes32"
        },
        {
          "internalType": "address",
          "name": "account",
          "type": "address"
        }
      ],
      "name": "hasRole",
      "outputs": [
        {
          "internalType": "bool",
          "name": "",
          "type": "bool"
        }
      ],
      "stateMutability": "view",
      "type": "function"
    },
    {
      "inputs": [
        {
          "internalType": "address",
          "name": "forwarder",
          "type": "address"
        }
      ],
      "name": "isTrustedForwarder",
      "outputs": [
        {
          "internalType": "bool",
          "name": "",
          "type": "bool"
        }
      ],
      "stateMutability": "view",
      "type": "function"
    },
    {
      "inputs": [
        {
          "internalType": "bytes32",
          "name": "role",
          "type": "bytes32"
        },
        {
          "internalType": "address",
          "name": "account",
          "type": "address"
        }
      ],
      "name": "renounceRole",
      "outputs": [],
      "stateMutability": "nonpayable",
      "type": "function"
    },
    {
      "inputs": [
        {
          "internalType": "bytes32",
          "name": "role",
          "type": "bytes32"
        },
        {
          "internalType": "address",
          "name": "account",
          "type": "address"
        }
      ],
      "name": "revokeRole",
      "outputs": [],
      "stateMutability": "nonpayable",
      "type": "function"
    },
    {
      "inputs": [
        {
          "internalType": "address",
          "name": "to",
          "type": "address"
        },
        {
          "internalType": "int96",
          "name": "flowRate",
          "type": "int96"
        },
        {
          "internalType": "uint256",
          "name": "amount",
          "type": "uint256"
        }
      ],
      "name": "stream",
      "outputs": [],
      "stateMutability": "nonpayable",
      "type": "function"
    },
    {
      "inputs": [
        {
          "internalType": "bytes4",
          "name": "interfaceId",
          "type": "bytes4"
        }
      ],
      "name": "supportsInterface",
      "outputs": [
        {
          "internalType": "bool",
          "name": "",
          "type": "bool"
        }
      ],
      "stateMutability": "view",
      "type": "function"
    },
    {
      "inputs": [],
      "name": "token",
      "outputs": [
        {
          "internalType": "contract INativeSuperToken",
          "name": "",
          "type": "address"
        }
      ],
      "stateMutability": "view",
      "type": "function"
    }
  ],
  "bytecode": "0x60a06040523480156200001157600080fd5b5060405162001dc738038062001dc78339810160408190526200003491620004ba565b73bf175fcc7086b4f9bd59d5eae8ea67b8f940de0d6080526040516200005a90620003b9565b604051809103906000f08015801562000077573d6000803e3d6000fd5b50600280546001600160a01b039283166001600160a01b03199182168117909255600180549387169390911683179055604051633504b4d160e21b8152600481019190915263d412d34490602401600060405180830381600087803b158015620000e057600080fd5b505af1158015620000f5573d6000803e3d6000fd5b5050600254604051635e9d09fb60e11b81526001600160a01b03909116925063bd3a13f69150620001319089908990899030906004016200059c565b600060405180830381600087803b1580156200014c57600080fd5b505af115801562000161573d6000803e3d6000fd5b5050600380546001600160a01b038087166001600160a01b0319928316811790935560048054918716919092161781556040805180820182528381529051635b69006f60e11b815290945060208501935063b6d200de91620001e9917fa9214cc96615e0085d3bb077758db69497dc2dce3b2b1e97bc93c3d18d83efd3910190815260200190565b60206040518083038186803b1580156200020257600080fd5b505afa15801562000217573d6000803e3d6000fd5b505050506040513d601f19601f820116820180604052508101906200023d9190620005e7565b6001600160a01b039081169091528151600580546001600160a01b031990811692841692909217905560209092015160068054909316911617905562000285600033620002bd565b620002b17f930802d0eadfb856cb83e01d1c4daa3c89e9c6d9f74cfbe13124decf2b33128a33620002bd565b5050505050506200060e565b6000828152602081815260408083206001600160a01b038516845290915290205460ff166200035c576000828152602081815260408083206001600160a01b03851684529091529020805460ff191660011790556200031b62000360565b6001600160a01b0316816001600160a01b0316837f2f8788117e7eff1d82e926ec794901d17c78024a50270940304540a733656f0d60405160405180910390a45b5050565b6000620003776200037c60201b620005911760201c565b905090565b6080516000906001600160a01b0316331415620003a0575060131936013560601c90565b62000377620003b560201b620005db1760201c565b3390565b610537806200189083390190565b634e487b7160e01b600052604160045260246000fd5b60005b83811015620003fa578181015183820152602001620003e0565b838111156200040a576000848401525b50505050565b600082601f8301126200042257600080fd5b81516001600160401b03808211156200043f576200043f620003c7565b604051601f8301601f19908116603f011681019082821181831017156200046a576200046a620003c7565b816040528381528660208588010111156200048457600080fd5b62000497846020830160208901620003dd565b9695505050505050565b6001600160a01b0381168114620004b757600080fd5b50565b60008060008060008060c08789031215620004d457600080fd5b86516001600160401b0380821115620004ec57600080fd5b620004fa8a838b0162000410565b975060208901519150808211156200051157600080fd5b506200052089828a0162000410565b9550506040870151935060608701516200053a81620004a1565b60808801519093506200054d81620004a1565b60a08801519092506200056081620004a1565b809150509295509295509295565b6000815180845262000588816020860160208601620003dd565b601f01601f19169290920160200192915050565b608081526000620005b160808301876200056e565b8281036020840152620005c581876200056e565b604084019590955250506001600160a01b039190911660609091015292915050565b600060208284031215620005fa57600080fd5b81516200060781620004a1565b9392505050565b60805161125f620006316000396000818161019c0152610595015261125f6000f3fe608060405234801561001057600080fd5b50600436106100df5760003560e01c80638d0f8cef1161008c578063c42e4d7d11610066578063c42e4d7d1461021e578063d3112b2e14610231578063d547741f1461026b578063fc0c546a1461027e57600080fd5b80638d0f8cef146101cc57806391d14854146101df578063a217fddf1461021657600080fd5b806336568abe116100bd57806336568abe146101525780633ea005c814610165578063572b6c051461018c57600080fd5b806301ffc9a7146100e4578063248a9ca31461010c5780632f2ff15d1461013d575b600080fd5b6100f76100f2366004610daf565b6102a9565b60405190151581526020015b60405180910390f35b61012f61011a366004610dd9565b60009081526020819052604090206001015490565b604051908152602001610103565b61015061014b366004610e0e565b610312565b005b610150610160366004610e0e565b61033c565b61012f7f930802d0eadfb856cb83e01d1c4daa3c89e9c6d9f74cfbe13124decf2b33128a81565b6100f761019a366004610e3a565b7f00000000000000000000000000000000000000000000000000000000000000006001600160a01b0390811691161490565b6101506101da366004610e55565b6103dd565b6100f76101ed366004610e0e565b6000918252602082815260408084206001600160a01b0393909316845291905290205460ff1690565b61012f600081565b61015061022c366004610e8e565b610499565b60055460065461024b916001600160a01b03908116911682565b604080516001600160a01b03938416815292909116602083015201610103565b610150610279366004610e0e565b61056c565b600254610291906001600160a01b031681565b6040516001600160a01b039091168152602001610103565b60006001600160e01b031982167f7965db0b00000000000000000000000000000000000000000000000000000000148061030c57507f01ffc9a7000000000000000000000000000000000000000000000000000000006001600160e01b03198316145b92915050565b60008281526020819052604090206001015461032d816105df565b61033783836105f3565b505050565b610344610692565b6001600160a01b0316816001600160a01b0316146103cf5760405162461bcd60e51b815260206004820152602f60248201527f416363657373436f6e74726f6c3a2063616e206f6e6c792072656e6f756e636560448201527f20726f6c657320666f722073656c66000000000000000000000000000000000060648201526084015b60405180910390fd5b6103d9828261069c565b5050565b7f930802d0eadfb856cb83e01d1c4daa3c89e9c6d9f74cfbe13124decf2b33128a610407816105df565b81156103375760025460405163a9059cbb60e01b81526001600160a01b038581166004830152602482018590529091169063a9059cbb90604401602060405180830381600087803b15801561045b57600080fd5b505af115801561046f573d6000803e3d6000fd5b505050506040513d601f19601f820116820180604052508101906104939190610ecd565b50505050565b7f930802d0eadfb856cb83e01d1c4daa3c89e9c6d9f74cfbe13124decf2b33128a6104c3816105df565b81156105515760025460405163a9059cbb60e01b81526001600160a01b038681166004830152602482018590529091169063a9059cbb90604401602060405180830381600087803b15801561051757600080fd5b505af115801561052b573d6000803e3d6000fd5b505050506040513d601f19601f8201168201806040525081019061054f9190610ecd565b505b6002546104939060059086906001600160a01b031686610739565b600082815260208190526040902060010154610587816105df565b610337838361069c565b60007f00000000000000000000000000000000000000000000000000000000000000006001600160a01b03163314156105d1575060131936013560601c90565b503390565b905090565b3390565b6105f0816105eb610692565b610814565b50565b6000828152602081815260408083206001600160a01b038516845290915290205460ff166103d9576000828152602081815260408083206001600160a01b03851684529091529020805460ff1916600117905561064e610692565b6001600160a01b0316816001600160a01b0316837f2f8788117e7eff1d82e926ec794901d17c78024a50270940304540a733656f0d60405160405180910390a45050565b60006105d6610591565b6000828152602081815260408083206001600160a01b038516845290915290205460ff16156103d9576000828152602081815260408083206001600160a01b03851684529091529020805460ff191690556106f5610692565b6001600160a01b0316816001600160a01b0316837ff6391f5c32d9c69d2a47ea670b442974b53935d1edc7fd64eb21e047a839171b60405160405180910390a45050565b600b81900b6107535761074e84308585610887565b610493565b6001840154604051631cd43d1160e31b81526001600160a01b0384811660048301523060248301528581166044830152600092169063e6a1e8889060640160806040518083038186803b1580156107a957600080fd5b505afa1580156107bd573d6000803e3d6000fd5b505050506040513d601f19601f820116820180604052508101906107e19190610eef565b509092505050600b81900b610801576107fc85858585610a40565b61080d565b61080d85858585610b70565b5050505050565b6000828152602081815260408083206001600160a01b038516845290915290205460ff166103d95761084581610bb5565b610850836020610bc7565b604051602001610861929190610f59565b60408051601f198184030181529082905262461bcd60e51b82526103c691600401611006565b6001840154604051631cd43d1160e31b81526001600160a01b03838116600483015285811660248301528481166044830152600092169063e6a1e8889060640160806040518083038186803b1580156108df57600080fd5b505afa1580156108f3573d6000803e3d6000fd5b505050506040513d601f19601f820116820180604052508101906109179190610eef565b5050915050600081600b0b131561080d57845460018601546040805160008152602081019091526001600160a01b03928316926339255d5b9216907fb4b333c600000000000000000000000000000000000000000000000000000000906109879087908a908a906044810161102f565b60408051601f198184030181529181526020820180517bffffffffffffffffffffffffffffffffffffffffffffffffffffffff166001600160e01b03199485161790525160e085901b90921682526109e2929160040161106d565b600060405180830381600087803b1580156109fc57600080fd5b505af1158015610a10573d6000803e3d6000fd5b505050506040513d6000823e601f3d908101601f19168201604052610a3891908101906110cd565b505050505050565b835460018501546001600160a01b03918216916339255d5b91167f62fc305e0000000000000000000000000000000000000000000000000000000085878660005b6040519080825280601f01601f191660200182016040528015610aab576020820181803683370190505b50604051602401610abf949392919061117a565b60408051601f198184030181529181526020820180517bffffffffffffffffffffffffffffffffffffffffffffffffffffffff166001600160e01b03199485161790525160e085901b9092168252610b1a929160040161106d565b600060405180830381600087803b158015610b3457600080fd5b505af1158015610b48573d6000803e3d6000fd5b505050506040513d6000823e601f3d908101601f1916820160405261080d91908101906110cd565b835460018501546001600160a01b03918216916339255d5b91167f50209a62000000000000000000000000000000000000000000000000000000008587866000610a81565b606061030c6001600160a01b03831660145b60606000610bd68360026111c5565b610be19060026111e4565b67ffffffffffffffff811115610bf957610bf9611019565b6040519080825280601f01601f191660200182016040528015610c23576020820181803683370190505b5090507f300000000000000000000000000000000000000000000000000000000000000081600081518110610c5a57610c5a6111fc565b60200101906001600160f81b031916908160001a9053507f780000000000000000000000000000000000000000000000000000000000000081600181518110610ca557610ca56111fc565b60200101906001600160f81b031916908160001a9053506000610cc98460026111c5565b610cd49060016111e4565b90505b6001811115610d59577f303132333435363738396162636465660000000000000000000000000000000085600f1660108110610d1557610d156111fc565b1a60f81b828281518110610d2b57610d2b6111fc565b60200101906001600160f81b031916908160001a90535060049490941c93610d5281611212565b9050610cd7565b508315610da85760405162461bcd60e51b815260206004820181905260248201527f537472696e67733a20686578206c656e67746820696e73756666696369656e7460448201526064016103c6565b9392505050565b600060208284031215610dc157600080fd5b81356001600160e01b031981168114610da857600080fd5b600060208284031215610deb57600080fd5b5035919050565b80356001600160a01b0381168114610e0957600080fd5b919050565b60008060408385031215610e2157600080fd5b82359150610e3160208401610df2565b90509250929050565b600060208284031215610e4c57600080fd5b610da882610df2565b60008060408385031215610e6857600080fd5b610e7183610df2565b946020939093013593505050565b80600b0b81146105f057600080fd5b600080600060608486031215610ea357600080fd5b610eac84610df2565b92506020840135610ebc81610e7f565b929592945050506040919091013590565b600060208284031215610edf57600080fd5b81518015158114610da857600080fd5b60008060008060808587031215610f0557600080fd5b845193506020850151610f1781610e7f565b6040860151606090960151949790965092505050565b60005b83811015610f48578181015183820152602001610f30565b838111156104935750506000910152565b7f416363657373436f6e74726f6c3a206163636f756e7420000000000000000000815260008351610f91816017850160208801610f2d565b7f206973206d697373696e6720726f6c65200000000000000000000000000000006017918401918201528351610fce816028840160208801610f2d565b01602801949350505050565b60008151808452610ff2816020860160208601610f2d565b601f01601f19169290920160200192915050565b602081526000610da86020830184610fda565b634e487b7160e01b600052604160045260246000fd5b60006001600160a01b0380871683528086166020840152808516604084015250608060608301526110636080830184610fda565b9695505050505050565b6001600160a01b038316815260606020820152600061108f6060830184610fda565b828103604093840152600281527f30780000000000000000000000000000000000000000000000000000000000006020820152919091019392505050565b6000602082840312156110df57600080fd5b815167ffffffffffffffff808211156110f757600080fd5b818401915084601f83011261110b57600080fd5b81518181111561111d5761111d611019565b604051601f8201601f19908116603f0116810190838211818310171561114557611145611019565b8160405282815287602084870101111561115e57600080fd5b61116f836020830160208801610f2d565b979650505050505050565b60006001600160a01b03808716835280861660208401525083600b0b6040830152608060608301526110636080830184610fda565b634e487b7160e01b600052601160045260246000fd5b60008160001904831182151516156111df576111df6111af565b500290565b600082198211156111f7576111f76111af565b500190565b634e487b7160e01b600052603260045260246000fd5b600081611221576112216111af565b50600019019056fea2646970667358221220c47d08af27f9247536e2e2c93e9f6572e4d899773638915dae8fd66122cb12fb64736f6c63430008090033608060405234801561001057600080fd5b50610517806100206000396000f3fe60806040526004361061002d5760003560e01c80634a0687ef14610044578063bd3a13f6146100645761003c565b3661003c5761003a610084565b005b61003a610084565b34801561005057600080fd5b5061003a61005f36600461030c565b610096565b34801561007057600080fd5b5061003a61007f366004610377565b61019c565b61009461008f61029d565b6102cc565b565b6001600160a01b0381166100f15760405162461bcd60e51b815260206004820152601760248201527f5555505350726f78793a207a65726f206164647265737300000000000000000060448201526064015b60405180910390fd5b600061011b7f360894a13ba1a3210667c828492db98dca3e2076cc3735a920a3ca505d382bbc5490565b6001600160a01b0316146101715760405162461bcd60e51b815260206004820152601e60248201527f5555505350726f78793a20616c726561647920696e697469616c697a6564000060448201526064016100e8565b610199817f360894a13ba1a3210667c828492db98dca3e2076cc3735a920a3ca505d382bbc55565b50565b6040517f42fe098000000000000000000000000000000000000000000000000000000000815230906342fe0980906101e4906000906012908b908b908b908b90600401610428565b600060405180830381600087803b1580156101fe57600080fd5b505af1158015610212573d6000803e3d6000fd5b5050604080516000815260208101918290527fc68d42830000000000000000000000000000000000000000000000000000000090915230925063c68d42839150610263908490869060248101610474565b600060405180830381600087803b15801561027d57600080fd5b505af1158015610291573d6000803e3d6000fd5b50505050505050505050565b60006102c77f360894a13ba1a3210667c828492db98dca3e2076cc3735a920a3ca505d382bbc5490565b905090565b3660008037600080366000845af43d6000803e8080156102eb573d6000f35b3d6000fd5b80356001600160a01b038116811461030757600080fd5b919050565b60006020828403121561031e57600080fd5b610327826102f0565b9392505050565b60008083601f84011261034057600080fd5b50813567ffffffffffffffff81111561035857600080fd5b60208301915083602082850101111561037057600080fd5b9250929050565b6000806000806000806080878903121561039057600080fd5b863567ffffffffffffffff808211156103a857600080fd5b6103b48a838b0161032e565b909850965060208901359150808211156103cd57600080fd5b506103da89828a0161032e565b909550935050604087013591506103f3606088016102f0565b90509295509295509295565b81835281816020850137506000828201602090810191909152601f909101601f19169091010190565b6001600160a01b038716815260ff861660208201526080604082015260006104546080830186886103ff565b82810360608401526104678185876103ff565b9998505050505050505050565b6001600160a01b038416815260006020848184015260606040840152835180606085015260005b818110156104b75785810183015185820160800152820161049b565b818111156104c9576000608083870101525b50601f01601f1916929092016080019594505050505056fea26469706673582212200b4136cf27398e628659c1c4bf489118ef30fbd61f46ab5884b9e297b729719764736f6c63430008090033",
  "linkReferences": {},
  "deployedLinkReferences": {}
}